:020000040800F2
:100000007006002089010008910100089301000892
:100010009501000897010008990100080000000000
:100020000000000000000000000000009B0100082C
:100030009D010008000000009F010008A1010008C8
:10004000A3010008A3010008A3010008A301000800
:10005000A3010008A3010008A3010008A3010008F0
:10006000A3010008A3010008A3010008A3010008E0
:10007000A3010008A3010008A3010008A3010008D0
:10008000A3010008A3010008A3010008A3010008C0
:10009000A3010008A3010008A3010008A3010008B0
:1000A000A3010008010A0008A3010008A301000839
:1000B000C50A0008A301000800000000A301000811
:1000C000A30100080000000000000000A3010008D8
:1000D00000000000A3010008A301000800000000C8
:1000E000A3010008A3010008A301000800F002F822
:1000F00000F03AF80AA090E8000C82448344AAF188
:100100000107DA4501D100F02FF8AFF2090EBAE885
:100110000F0013F0010F18BFFB1A43F0010318473B
:10012000E00D0000000E0000103A24BF78C878C12E
:10013000FAD8520724BF30C830C144BF04680C60ED
:10014000704700000023002400250026103A28BF35
:1001500078C1FBD8520728BF30C148BF0B60704739
:100160001FB51FBD10B510BD00F031F81146FFF7E7
:10017000F7FF00F0BBFE00F04FF803B4FFF7F2FF0B
:1001800003BC00F057F800000948804709480047C1
:10019000FEE7FEE7FEE7FEE7FEE7FEE7FEE7FEE737
:1001A000FEE7FEE704480549054A064B7047000094
:1001B00061070008ED0000087000002070060020B4
:1001C000700200207002002070477047704775462B
:1001D00000F02CF8AE4605006946534620F00700B3
:1001E000854618B020B5FFF7DDFFBDE820404FF091
:1001F00000064FF000074FF000084FF0000B21F011
:100200000701AC46ACE8C009ACE8C009ACE8C009DD
:10021000ACE8C0098D46704710B50446AFF30080C6
:100220002046BDE81040FFF7A8BF00000048704717
:100230001000002001491820ABBEFEE72600020096
:10024000704700000549096821F01001034A116058
:100250001146096801431160704700000020024008
:1002600001460020034A106800F03800084310607F
:1002700070470000002002402DE9F04102460025B1
:100280000026002000230024002791F803C00CF072
:100290000F0591F803C00CF0100CBCF1000F03D057
:1002A00091F802C04CEA050591F800C0BCF1000FBE
:1002B00031D0146800202BE04FF0010C0CFA00F351
:1002C000B1F800C00CEA03069E4220D183004FF033
:1002D0000F0C0CFA03F7BC4305FA03FC4CEA0404C8
:1002E00091F803C0BCF1280F06D14FF0010C0CFAB5
:1002F00000FCC2F814C00AE091F803C0BCF1480F3A
:1003000005D14FF0010C0CFA00FCC2F810C0401CE3
:100310000828D1D31460B1F800C0BCF1FF0F34DD60
:10032000546800202EE000F1080C4FF0010808FA94
:100330000CF3B1F800C00CEA03069E4221D1830001
:100340004FF00F0C0CFA03F7BC4305FA03FC4CEA20
:10035000040491F803C0BCF1280F05D100F1080C8A
:1003600008FA0CF8C2F8148091F803C0BCF1480FE9
:1003700007D100F1080C4FF0010808FA0CF8C2F898
:100380001080401C0828CED35460BDE8F081016184
:100390007047000008B50121102000F059F84FF413
:1003A0000050ADF8000010208DF8030003208DF8F8
:1003B000020069460148FFF75FFF08BD00100140D9
:1003C00070B5002100230F22C47804B3154C2468B3
:1003D00004F4E064C4F5E064210AC1F10403CA40F6
:1003E000447804FA03F184781440214309010E4C47
:1003F0000678A155047804F01F050124AC40057867
:100400006D11AD0005F1E025C5F8004109E0047863
:1004100004F01F050124AC40044D0678761145F820
:10042000264070BD0CED00E000E400E080E100E05B
:1004300029B1064AD2690243044BDA6104E0034A57
:10044000D2698243014BDA6170470000001002401C
:1004500029B1064A92690243044B9A6104E0034AB7
:1004600092698243014B9A6170470000001002407C
:100470000F48006840F001000D49086008464068D8
:100480000C4908400A494860084600680A49084083
:10049000074908600846006820F480200860084684
:1004A000406820F4FE0048604FF41F0088607047E9
:1004B000001002400000FFF8FFFFF6FE10B50146F5
:1004C0000022002300204A11012A02D1094C23688E
:1004D00006E0022A02D1074C236A01E0054C636A58
:1004E00001F01F02012494401C400CB1012000E0E7
:1004F000002010BD001002400248406800F00C00CF
:10050000704700000010024001460020034A506876
:1005100020F0F000084350607047000000100240D7
:100520001149096821F480310F4A116011460968A8
:1005300021F480211160B0F5803F03D0B0F5802F09
:100540000ED106E00849096841F48031064A11607D
:1005500007E00549096841F4A021034A116000E061
:1005600000BF00BF704700000010024010B5FFF749
:100570007FFF4FF48030FFF7D3FF00F061F80446AF
:10058000012C24D10020FFF7BFFF002000F02CF841
:10059000A00200F01DF80220FFF762FE1020FFF716
:1005A00051FE4FF4E011200400F030F8012000F07B
:1005B00027F800BF3920FFF781FF0028FAD002207A
:1005C00000F032F800BFFFF797FF0828FBD110BDFD
:1005D00001460020034A506820F4E0600843506060
:1005E000704700000010024001460020034A506896
:1005F00020F4605040EAC100506070470010024093
:10060000014908667047000000004242024600208F
:10061000044B586820F47C1042EA01031843014B54
:10062000586070470010024001460020034A50689D
:1006300020F00300084350607047000000100240A3
:1006400038B5002000900024002500BF3120FFF7BE
:1006500035FF05460098401C00900098B0F5A06F4B
:1006600001D0002DF2D03120FFF728FF08B101247E
:1006700000E00024204638BD10B500F001F810BDA0
:100680000CB50020019000903348006840F48030A1
:100690003149086000BF3048006800F40030009025
:1006A0000198401C0190009818B90198B0F5A06F0E
:1006B000F1D12948006800F4003010B10120009009
:1006C00001E0002000900098012843D123480068F1
:1006D00040F01000214908600846006820F003003F
:1006E00008600846006840F0020008601A48406848
:1006F000194948600846406848600846406840F428
:10070000806048600846406820F47C1048600846D5
:10071000406840F4E81048600846006840F0807087
:10072000086000BF0C48006800F000700028F9D095
:100730000948406820F003000749486008464068BF
:1007400040F00200486000BF0348406800F00C0021
:100750000828F9D10CBD0000001002400020024022
:1007600010B51348006840F00100114908600846C0
:100770004068104908400E494860084600680E4924
:1007800008400B4908600846006820F48020086093
:100790000846406820F4FE0048604FF41F0088605F
:1007A000FFF76AFF4FF000600449086010BD0000C9
:1007B000001002400000FFF8FFFFF6FE08ED00E029
:1007C000F0B50C46154600220021068C4FF6FE7748
:1007D0003E400684028B018C4FF60C7632407E1C24
:1007E00006EA03162E433243104EB0420ED0104E8E
:1007F000B0420BD0B0F1804F08D00E4EB04205D0C1
:100800000D4EB04202D00D4EB04206D14FF6FD76ED
:10081000314044F00106314305E04FF6F5763140B2
:1008200044F00106314302830184F0BD002C0140F5
:10083000003401400004004000080040000C00406B
:10084000F0B50C461546002200210026078C4FF615
:10085000EF7C07EA0C070784028B018C4FF6FF77C9
:1008600007EA041640F6FF473A404FF6FF7707EADB
:1008700003373A434FF6FF7707EA05273A43114F0C
:10088000B8420ED0104FB8420BD0B0F1804F08D014
:100890000E4FB84205D00E4FB84202D00D4FB842AD
:1008A00006D14FF6DF77394046F01007394305E0AF
:1008B0004FF65F77394044F01007394302830184D3
:1008C000F0BD0000002C0140003401400004004055
:1008D00000080040000C0040F0B50C461546002210
:1008E00000210026078C4FF6FF6C07EA0C070784EF
:1008F000828B018C4FF6FF7707EA04264FF60C77C0
:100900003A404FF6FF7707EA03172F433A43114F58
:10091000B8420ED0104FB8420BD0B0F1804F08D083
:100920000E4FB84205D00E4FB84202D00D4FB8421C
:1009300006D14FF6FF57394046F48077394305E03A
:100940004FF2FF57394044F4807739438283018462
:10095000F0BD0000002C01400034014000040040C4
:1009600000080040000C0040F0B50C46154600227F
:1009700000210026078C4EF6FF7C07EA0C0707844F
:10098000828B018C4FF6FF7707EA043640F6FF476B
:100990003A404FF6FF7707EA05273A434FF6FF77CD
:1009A00007EA03373A43114FB8420ED0104FB8420E
:1009B0000BD0B0F1804F08D00E4FB84205D00E4F8B
:1009C000B84202D00D4FB84206D14DF6FF773940FC
:1009D00046F48057394305E047F6FF57394044F461
:1009E0008057394382830184F0BD0000002C014010
:1009F000003401400004004000080040000C0040AA
:100A000010B50121134800F028F908B31248006816
:100A1000401C1149086008464068401C4860084670
:100A20000068B0F5FA7F08D30C48C06880F4005025
:100A30000A49C860002008490860074840686428DF
:100A400002D30020044948600121024800F0F6F872
:100A500010BD0000002C01400400002000100140E7
:100A60001FB50121C802FFF7F3FC40F2E730ADF8F3
:100A700008004820ADF804000020ADF80A00ADF8E9
:100A800006008DF80C0001A90D4800F0DDF90122E7
:100A900011460B4800F048F919208DF8000002209B
:100AA0008DF8010001208DF802008DF803006846E2
:100AB000FFF786FC0121024800F0C3F81FBD0000CB
:100AC000002C014010B50421080700F0C6F840B121
:100AD00006480068401C054908600421080700F02A
:100AE000ADF80121880700F0A9F810BD0000002032
:100AF00030B58DB004460D4601210846FFF798FC3D
:100B000001210520FFF7A4FC0420ADF830001820D7
:100B10008DF8330003208DF832000CA93D48FFF713
:100B2000ABFB0220ADF8300048208DF833000320E5
:100B30008DF832000CA93748FFF79EFB0120ADF875
:100B4000300010208DF8330003208DF832000CA9FE
:100B50003048FFF791FB01212E48FFF718FC601E7B
:100B600080B2ADF82800681E80B2ADF824000020E5
:100B7000ADF82A00ADF8260009A94FF0804000F03A
:100B800063F901220221480700F0CEF86020ADF899
:100B900014000120ADF816006010ADF81A00002016
:100BA000ADF81C0005A94FF0804000F0C7F8042004
:100BB000ADF808000020ADF81000ADF80A00ADF85F
:100BC0000E000120ADF80C0002A9800700F056F8D5
:100BD0000821C80600F002F90121880700F022F878
:100BE0001C208DF8040003208DF8050000208DF8EE
:100BF000060001208DF8070001A8FFF7E1FB0122A4
:100C00000421080700F090F80121880700F019F886
:100C10000DB030BD0008014010B500210A20FFF7DB
:100C200067FF10BD21B1028842F08002028004E01B
:100C300002884FF67F731A4002807047CA430282CF
:100C4000704721B1028842F00102028004E002886C
:100C50004FF6FE731A400280704730B502460020FE
:100C600000230024158A05EA0103958905EA010499
:100C700013B10CB1012000E0002030BD70B5054675
:100C80000C46244885420ED0234885420BD0B5F14E
:100C9000804F08D02148854205D02148854202D0A6
:100CA0002048854200D100E000BF208850B9238948
:100CB000A28861882846FFF783FDE188284600F076
:100CC00096F825E0208804280AD12389A288618823
:100CD0002846FFF7B5FDE188284600F091F817E0B7
:100CE000208808280AD12389A28861882846FFF72E
:100CF000F3FDE188284600F090F809E02389A288F6
:100D000061882846FFF730FEE188284600F08EF81B
:100D100070BD0000002C0140003401400004004080
:100D200000080040000C00401AB183890B43838106
:100D300002E083898B4383817047000070B50024F3
:100D400000220023058C4FF6FF6635400584028C97
:100D50008388848B4FF68F752C404FF6FC752C40A2
:100D60000D882C434FF6FF552A400D894FF6FF762C
:100D700006EA05252A434D8806EA05252A43154D2E
:100D8000A84202D0144DA8421DD14FF2FF752A404F
:100D90004D894FF6FF7606EA05252A434FF6FF35C3
:100DA0002A408D8806EA05252A434EF6FF752B401A
:100DB0004DF6FF752B408D8906EA05152B43CD892D
:100DC00006EA05152B4383808483CD8885870284BA
:100DD00070BD0000002C0140003401400A46002193
:100DE000818B4FF6F7731940114381837047028B53
:100DF0004FF6F3731A400283028B0A430283704753
:100E0000028B4FF2FF331A400283028B4FF6FF73BF
:100E100003EA01231A4302837047828B4FF6F37370
:100E20001A408283828B0A4382837047828B4FF2FF
:100E3000FF331A408283828B4FF6FF7303EA01234C
:100E40001A43828370470000002202881D4B98429B
:100E50000ED01D4B98420BD0B0F1804F08D01B4BE9
:100E6000984205D01A4B984202D01A4B984204D1AE
:100E70004FF68F731A404B881A43174B984207D08E
:100E8000164B984204D04FF6FF431A40CB881A43C2
:100E900002808B8883850B8803850A4B98420BD090
:100EA000094B984208D00E4B984205D00D4B984202
:100EB00002D00D4B984201D10B7A03860123838225
:100EC00070470000002C0140003401400004004045
:100ED00000080040000C00400010004000140040DA
:100EE000004001400044014000480140FFF73EFB44
:100EF000FFF750FAFFF7B4FDFFF78EFE00BFFEE7E5
:100F0000200F000800000020100000002801000849
:100F1000300F0008100000206006000044010008A7
:100F200000000000000000000000000000000000C1
:04000005080000ED02
:00000001FF
